:10000000B0C1000098C60000C1C60000EAC60000EA
:1000100013C700003CC7000065C700008EC7000082
:10002000B7C70000CFC10000CDC10000CBC10000A8
:10003000C9C100000C946A0EC5C10000C3C1000014
:10004000C1C10000BFC10000BDC10000BBC10000B4
:10005000B9C10000B7C10000B5C10000C4C70000AD
:10006000B1C100000C94010B0C94370BABC1000024
:10007000A9C10000A7C10000A5C10000A3C10000E4
:10008000A1C100009FC100009DC100009BC10000F4
:100090000C948D0B0C94C30B95C1000093C1000010
:1000A00091C100008FC100008DC100008BC1000014
:1000B00089C1000087C1000085C1000083C1000024
:1000C00081C100007FC100000C94ED0E0C94190C4E
:1000D0000C944F0C77C100000C94A50C0C94DB0C15
:1000E00071C1000075063F0647065306600681068B
:1000F0008E0618091B090A090E09140952091F095D
:10010000230929092D09310937093B093F095209FA
:10011000450949094D09F916BA182B192E19FE1768
:100120003018B916D9169D160819F71804192E1982
:100130002E192E19881600000A0B02090C0D0E0844
:1001400007030401000000000000000000000000A0
:10015000000000000000000000000000000000009F
:10016000000012111000000000000000000000005C
:10017000000000000000000000000000010210204C
:1001800020080810204010204080020102010804CD
:100190000201010204081020408080402010080461
:1001A00002018004020180402010080402010804BA
:1001B00002010102040810204080010204081020FE
:1001C0004080050505050705080808080202020227
:1001D0000A0A0808040404040101010101010101E3
:1001E0000303030303030303040707070C0C0C0CAE
:1001F0000C0C0C0C02020202060606060606060697
:100200000B0B0B0B0B0B0B0B00002000230026002D
:1002100029002C002F00320000010000030106011C
:10022000090100002200250028002B002E003100CB
:10023000340002010000050108010B01000021004B
:10024000240027002A002D003000330001010000A7
:10025000040107010A0102001D3A2774694E53E8A0
:10026000F5D2CF9C81A6BBCDD0F7EAB9A4839E2559
:10027000381F02514C6B76879ABDA0F3EEC9D46F3C
:100280007255481B06213C4A57706D3E230419A243
:10029000BF9885D6CBECF1130E2934677A5D40FB0D
:1002A000E6C1DC8F92B5A8DEC3E4F9AAB7908D361B
:1002B0002B0C11425F78659489AEB3E0FDDAC77C00
:1002C00061465B0815322F5944637E2D30170AB101
:1002D000AC8B96C5D8FFE2263B1C01524F6875CE09
:1002E000D3F4E9BAA7809DEBF6D1CC9F82A5B803E1
:1002F0001E3924776A4D50A1BC9B86D5C8EFF249C0
:1003000054736E3D20071A6C71564B1805223F84BA
:1003100099BEA3F0EDCAD735280F12415C7B66DD8C
:10032000C0E7FAA9B4938EF8E5C2DF8C91B6AB10A2
:100330000D2A3764795E43B2AF8895C6DBFCE15A7B
:1003400047607D2E3314097F6245580B16312C9778
:100350008AADB0E3FED9C400600BEC0B780C040D41
:10036000700D11241FBECFEFD1E2DEBFCDBF00E084
:100370000CBF13E0A0E0B2E0ECEEF7E500E00BBF4D
:1003800002C007900D92A23AB107D9F727E0A2EA7E
:10039000B3E001C01D92A835B207E1F711E0C1EB4F
:1003A000D1E000E006C021970109802FFE010E94E4
:1003B000782ACC3AD10780E00807A9F70E94A52740
:1003C0000C94F42B1DCE4F925F926F927F928F927E
:1003D0009F92AF92BF92CF92DF92EF92FF92C09026
:1003E0005007D0905107E0905207F0905307C70193
:1003F000B6010E942C292B013C01209192023091E0
:10040000930240919402509195020E948D2887FF9B
:100410000BC0F7FC09C080908A0290908B02A090DC
:100420008C02B0908D0203C0812C912C540120E0ED
:1004300030E040E85FE360918E0270918F0280911E
:100440009002909191020E9428289B01AC01C30167
:10045000B2010E94DC2987FD09C01092500710925A
:10046000510710925207109253070DC08FEFC81A10
:10047000D80AE80AF80AC0925007D0925107E092D1
:100480005207F09253072091A2023091A3024091AB
:10049000A4025091A502C501B4010E9428286093CE
:1004A000090770930A0780930B0790930C0760E489
:1004B00077E08DE097E0EED220910D0730910E07A6
:1004C00040910F07509110076091090770910A073A
:1004D00080910B0790910C070E9428284B015C012A
:1004E00020918202309183024091840250918502D2
:1004F0000E94E0292091440730914507409146072A
:10050000509147070E9429286B017C014090860288
:10051000509087026090880270908902A301920136
:100520000E94DC29181684F040907E0250907F02D1
:100530006090800270908102A3019201C701B60110
:100540000E948D2887FF09C0409211075092120720
:10055000609213077092140708C0C0921107D092DE
:100560001207E0921307F09214072091A60230912F
:10057000A7024091A8025091A902609111077091C1
:10058000120780911307909114070E942928609305
:10059000150770931607809317079093180768E460
:1005A00077E085E197E0F7D260E477E08DE097E0CF
:1005B000C6D220917A0230917B0240917C02509108
:1005C0007D02C501B4010E94E02920919A02309178
:1005D0009B0240919C0250919D020E94E0299B0148
:1005E000AC01609144077091450780914607909156
:1005F00047070E942928609344077093450780931A
:1006000046079093470768E477E085E197E0EED2EC
:1006100081E090E077D140912F07509130076091B1
:1006200031077091320780E090E068D180903B07FD
:1006300090903C07A0903D07B0903E0720E030E04E
:1006400040E85FEBC501B4010E948D28882331F199
:10065000C0902F07D0903007E0903107F09032071C
:10066000A7019601C501B4010E9428284B015C0135
:1006700020E030E040E054E3C701B6010E94E029E9
:100680009B01AC01C501B4010E94DC29181634F0AD
:100690008FEB92E090931A078093190780913F07A0
:1006A000882331F08FEB92E090931A07809319071B
:1006B0008091330790913407A0913507B0913607A8
:1006C000BC01CD016F5F7F4F8F4F9F4F609333070A
:1006D0007093340780933507909336070E942A2938
:1006E00020913707309138074091390750913A07E8
:1006F0000E94E02960932F077093300780933107A1
:1007000090933207FF90EF90DF90CF90BF90AF9023
:100710009F908F907F906F905F904F900895CF93B0
:10072000DF93E9E1F7E087E2DF011D928A95E9F7BF
:1007300080E090E0A0E8BFEB82A393A3A4A3B5A3BD
:100740008DEC9CECACE4BDE3868F978FA0A3B1A3A6
:1007500086E89FE5A3E1B0EA84839583A683B78307
:1007600086EA99E0A0E0B0E080879187A287B3870E
:1007700087E49DE4A3E7B7EA84879587A687B787D0
:100780008AE797E0ADE1BAE7808B918BA28BB38BC0
:10079000A6EBB3E0B383A28384EB93E011969C9322
:1007A0008E938FE393E09093B5038093B4038DE22F
:1007B00097E015969C938E9314978DE197E013968E
:1007C0009C938E9312978FE297E017969C938E934B
:1007D000169780E1A9E0B7E0ED0119928A95E9F753
:1007E00020E437E084E1D9011D928A95E9F7A2EA75
:1007F000B3E082E1ED0119928A95E9F7B58BA48BFC
:100800008EE090E011969C938E938EE592E0139685
:100810009C938E93129782E492E015969C938E930C
:1008200014978EE192E017969C938E9316978AE028
:1008300092E019969C938E93189780919E029091C6
:100840009F02A091A002B091A102F9018483958337
:10085000A683B783DF91CF9108950895EF92FF9219
:100860000F931F93CF93DF937C018B01EA010E94CA
:100870000913811121C08091AA029091AB020497C3
:1008800011F183E090E09093AB028093AA021BC029
:1008900098819111F0CF28ED38EB45E050E060E011
:1008A00070E0CB010E949415AE01B801C7010E940F
:1008B000A215C8010E946F158091C2039091C303D5
:1008C000892B31F3D8CFDF91CF911F910F91FF90FA
:1008D000EF900895CF93DF932091AA023091AB025D
:1008E0002430310541F0EB010E94A215CE01DF91C9
:1008F000CF910C946F15DF91CF9108950C94BE1990
:100900000C94B3190C94A1190C947F150C944619EE
:10091000089560E070E080E090E00C94E4120895A7
:10092000AF92BF92CF92DF92EF92FF920F931F93FD
:10093000CF93DF931F921F92CDB7DEB75C016901A1
:100940007A018B0180E090E0C114D104E104F1044C
:10095000F1F0C114D10421E0E206F10410F4A60183
:1009600002C04FEF5FEF9E012F5F3F4FB801C501FF
:100970000E945F1A8F3F2FEF920749F029813A8139
:10098000C21AD30AE108F108020F131FDDCF0F903E
:100990000F90DF91CF911F910F91FF90EF90DF901B
:1009A000CF90BF90AF90089582E0E8D4019749F4CA
:1009B00083E0E4D42091C6033091C7030197C1F4CA
:1009C00008C083E0DBD42091C6033091C703892B94
:1009D00079F42F5F3F4F3093C7032093C603283E1F
:1009E0003340E1F48091C4039091C50301960EC099
:1009F000215031093093C7032093C60328313C4F5F
:100A000069F48091C4039091C50301979093C50345
:100A10008093C4031092C7031092C603089583E025
:100A2000ADD4019749F482E0A9D42091C603309156
:100A3000C703892BC1F408C082E0A0D42091C6036B
:100A40003091C703019779F42F5F3F4F3093C7036D
:100A50002093C603283E3340E1F48091C403909173
:100A6000C50301960EC0215031093093C70320936E
:100A7000C60328313C4F69F48091C4039091C503AB
:100A800001979093C5038093C4031092C7031092FB
:100A9000C6030895CF92DF92EF92FF92CF93DF9338
:100AA000EC0120E030E040E85FE3FB016081718110
:100AB000828193810E948D2881113AC06091C40384
:100AC0007091C503072E000C880B990B0E942C29EE
:100AD0006B017C014091C6035091C703BA01550FC9
:100AE000880B990B0E942C2920E030E04AE754E45F
:100AF0000E9491289B01AC01C701B6010E942928E0
:100B000020E030E040E752E40E94E0292DEC3CEC8C
:100B10004CE45DE30E949128688379838A839B83F8
:100B20001092C7031092C6031092C5031092C4031B
:100B3000DF91CF91FF90EF90DF90CF900895CF930A
:100B4000DF93EB0120E030E040E85FE368817981EA
:100B50008A819B810E948D288823D1F060E082E009
:100B6000A2D360E083E09FD341E050E064ED74E005
:100B700082E06DD041E050E06FE075E083E067D047
:100B800080E090E0A0E8BFE388839983AA83BB83D9
:100B9000DF91CF910895CF93DF93EC0120E030E017
:100BA00040E85FE3FB0160817181828193810E9453
:100BB0008D28811118C0688179818A819B810E946A
:100BC000F9282FE331E0269FA001279F500D369F83
:100BD000500D1124CA0164E670E00E94432A70930C
:100BE000AB006093AA00DF91CF910895CF93DF937C
:100BF000EB0120E030E040E85FE3688179818A81A1
:100C00009B810E948D288823E9F061E087E04BD327
:100C100083E28093A00089E18093A10081E080932A
:100C2000A9008FE38093A80080EA90E09093AB0046
:100C30008093AA0080E090E0A0E8BFE388839983D6
:100C4000AA83BB83DF91CF910895089508958830DA
:100C500008F070C0A82FB0E0AA0FBB1FA455BD4F6D
:100C600011967C936E9390E0FC013197E730F1058B
:100C7000A0F58827EE58FF4F8F4F0C94782A80916B
:100C800069008C7F482B40936900E89A0895809111
:100C90006900440F551F440F551F837F482B409315
:100CA0006900E99A08958091690074E0440F551F26
:100CB0007A95E1F78F7C482B40936900EA9A089572
:100CC0008091690066E0440F551F6A95E1F78F73C4
:100CD000482B40936900EB9A089580916A008C7FBD
:100CE000482B40936A00EC9A089580916A00440F63
:100CF000551F440F551F837F482B40936A00ED9A80
:100D0000089580916A0024E0440F551F2A95E1F769
:100D10008F7C482B40936A00EE9A089580916A0078
:100D200096E0440F551F9A95E1F78F73482B409337
:100D30006A00EF9A08951F920F920FB60F92112436
:100D40000BB60F922F933F934F935F936F937F93C5
:100D50008F939F93AF93BF93EF93FF93E091B00274
:100D6000F091B1021995FF91EF91BF91AF919F91D1
:100D70008F917F916F915F914F913F912F910F9044
:100D80000BBE0F900FBE0F901F9018951F920F92E1
:100D90000FB60F9211240BB60F922F933F934F93E0
:100DA0005F936F937F938F939F93AF93BF93EF93D3
:100DB000FF93E091B202F091B3021995FF91EF9188
:100DC000BF91AF919F918F917F916F915F914F9163
:100DD0003F912F910F900BBE0F900FBE0F901F9061
:100DE00018951F920F920FB60F9211240BB60F9207
:100DF0002F933F934F935F936F937F938F939F9323
:100E0000AF93BF93EF93FF93E091B402F091B502DB
:100E10001995FF91EF91BF91AF919F918F917F9124
:100E20006F915F914F913F912F910F900BBE0F905B
:100E30000FBE0F901F9018951F920F920FB60F9232
:100E400011240BB60F922F933F934F935F936F93A1
:100E50007F938F939F93AF93BF93EF93FF93E09113
:100E6000B602F091B7021995FF91EF91BF91AF9142
:100E70009F918F917F916F915F914F913F912F91B2
:100E80000F900BBE0F900FBE0F901F9018951F92E2
:100E90000F920FB60F9211240BB60F922F933F9320
:100EA0004F935F936F937F938F939F93AF93BF9372
:100EB000EF93FF93E091AC02F091AD021995FF9191
:100EC000EF91BF91AF919F918F917F916F915F91C2
:100ED0004F913F912F910F900BBE0F900FBE0F902F
:100EE0001F9018951F920F920FB60F9211240BB6F8
:100EF0000F922F933F934F935F936F937F938F93B3
:100F00009F93AF93BF93EF93FF93E091AE02F09165
:100F1000AF021995FF91EF91BF91AF919F918F9182
:100F20007F916F915F914F913F912F910F900BBEE9
:100F30000F900FBE0F901F9018951F920F920FB633
:100F40000F9211240BB60F922F933F934F935F9301
:100F50006F937F938F939F93AF93BF93EF93FF9381
:100F6000E091B802F091B9021995FF91EF91BF910C
:100F7000AF919F918F917F916F915F914F913F9131
:100F80002F910F900BBE0F900FBE0F901F901895D2
:100F90001F920F920FB60F9211240BB60F922F9340
:100FA0003F934F935F936F937F938F939F93AF93F1
:100FB000BF93EF93FF93E091BA02F091BB021995B2
:100FC000FF91EF91BF91AF919F918F917F916F9121
:100FD0005F914F913F912F910F900BBE0F900FBEDD
:100FE0000F901F9018951F920F920FB60F92112419
:100FF0002F933F938F939F93AF93BF938091C90398
:101000009091CA03A091CB03B091CC033091C80357
:1010100023E0230F2D3720F40196A11DB11D05C03B
:1010200026E8230F0296A11DB11D2093C8038093CB
:10103000C9039093CA03A093CB03B093CC038091D0
:10104000CD039091CE03A091CF03B091D003019630
:10105000A11DB11D8093CD039093CE03A093CF0328
:10106000B093D003BF91AF919F918F913F912F91FA
:101070000F900FBE0F901F9018953FB7F894809176
:10108000CD039091CE03A091CF03B091D00326B5AC
:10109000A89B05C02F3F19F00196A11DB11D3FBFB0
:1010A000BA2FA92F982F8827820F911DA11DB11D3E
:1010B000BC01CD0142E0660F771F881F991F4A953A
:1010C000D1F708958F929F92AF92BF92CF92DF9205
:1010D000EF92FF926B017C01D0DF4B015C01C114E8
:1010E000D104E104F104F1F0B0DDC7DFDC01CB0194
:1010F00088199909AA09BB09883E9340A105B10541
:1011000070F321E0C21AD108E108F10888EE880ED8
:1011100083E0981EA11CB11CC114D104E104F104A8
:1011200021F7DDCFFF90EF90DF90CF90BF90AF9091
:101130009F908F900895789484B5826084BD84B523
:10114000816084BD85B5826085BD85B5816085BDC2
:10115000EEE6F0E0808181608083E1E8F0E01082DB
:10116000808182608083808181608083E0E8F0E01C
:10117000808181608083E1EBF0E080818460808306
:10118000E0EBF0E0808181608083E1E9F0E0808144
:1011900082608083808181608083E0E9F0E08081EB
:1011A00081608083E1EAF0E08081826080838081D9
:1011B00081608083E0EAF0E0808181608083E1E209
:1011C000F1E0808182608083808181608083E0E2C1
:1011D000F1E0808181608083EAE7F0E080818460D3
:1011E0008083808182608083808181608083808130
:1011F000806880831092C100089590E0FC013197CF
:10120000E231F10508F04EC08827E758FF4F8F4FB5
:101210000C94782A809180008F7703C080918000A1
:101220008F7D80938000089580918000877FF9CF23
:1012300084B58F7702C084B58F7D84BD0895809179
:10124000B0008F7703C08091B0008F7D8093B00095
:101250000895809190008F7707C0809190008F7DD6
:1012600003C080919000877F8093900008958091C3
:10127000A0008F7707C08091A0008F7D03C0809170
:10128000A000877F8093A0000895809120018F7730
:1012900007C0809120018F7D03C080912001877F4E
:1012A000809320010895CF93DF9390E0FC01E458F0
:1012B000FE4F2491FC01EE53FE4F8491882361F18F
:1012C00090E0880F991FFC01E45CFD4FC591D4911B
:1012D000FC01EE5DFD4FA591B491611109C09FB76E
:1012E000F8948881209582238883EC912E230BC06B
:1012F000623061F49FB7F8943881822F8095832300
:101300008883EC912E2B2C939FBF06C08FB7F89447
:10131000E8812E2B28838FBFDF91CF9108951F93F3
:10132000CF93DF93282F30E0F901EA5CFE4F8491E0
:10133000F901E458FE4FD491F901EE53FE4FC491E8
:10134000CC23C1F0162F811158DFEC2FF0E0EE0F07
:10135000FF1FEE5DFD4FA591B4918FB7F894111169
:1013600005C09C91ED2FE095E92302C0EC91ED2B97
:10137000EC938FBFDF91CF911F910895CF93DF93AF
:10138000282F30E0F901EA5CFE4F8491F901E4581E
:10139000FE4FD491F901EE53FE4FC491CC2389F056
:1013A00081112BDFEC2FF0E0EE0FFF1FE85FFD4F08
:1013B000A591B491EC91ED2381E090E021F480E0DF
:1013C00002C080E090E0DF91CF910895FC01918D03
:1013D000228D892F90E0805C9F4F821B91098F7333
:1013E00099270895FC01918D828D981731F0828D97
:1013F000E80FF11D858D90E008958FEF9FEF089520
:10140000FC01918D828D981761F0828DDF01A80F0C
:10141000B11D5D968C91928D9F5F9F73928F90E02E
:1014200008958FEF9FEF0895FC01848DDF01A80FD1
:10143000B11DA35ABF4F2C91848D90E001968F73FC
:101440009927848FA689B7892C93A089B1898C911B
:1014500080648C93938D848D981306C00288F389E1
:10146000E02D80818F7D80830895CF93DF93EC0101
:10147000888D8823C1F0EA89FB89808185FD05C0BC
:10148000A889B9898C9186FD0EC00FB607FCF5CFEF
:10149000808185FFF2CFA889B9898C9185FFEDCF36
:1014A000CE01C2DFE8CFDF91CF910895EF92FF9296
:1014B0000F931F93CF93DF93EC0181E0888F9B8D77
:1014C0008C8D981305C0E889F989808185FD23C03A
:1014D000F62E0B8D10E00F5F1F4F0F731127E02EBC
:1014E0008C8DE8120BC00FB607FCFACFE889F9899A
:1014F000808185FFF5CFCE0197DFF2CF8B8DFE0186
:10150000E80FF11DE35AFF4FF0820B8FEA89FB8948
:101510008081806207C0EE89FF896083E889F9894C
:1015200080818064808381E090E0DF91CF911F9182
:101530000F91FF90EF900895CF92DF92EF92FF927C
:101540001F93CF93DF93EC016A017B01122FE8898F
:10155000F98982E080834115514E61057105B1F032
:1015600060E079E08DE390E0A70196010E94562AA1
:10157000DA01C9010197A109B109B695A795979517
:101580008795AC01411580E15807A8F0E889F989F1
:10159000108260E874E88EE190E0A70196010E9455
:1015A000562ABA01A901415051096109710976957C
:1015B000679557954795EC85FD855083EE85FF85AA
:1015C0004083188EEC89FD891083EA89FB8980812C
:1015D00080618083EA89FB89808188608083EA89D1
:1015E000FB89808180688083EA89FB8980818F7D87
:1015F0008083DF91CF911F91FF90EF90DF90CF908C
:1016000008951F920F920FB60F9211240BB60F92EE
:101610002F938F939F93EF93FF93E091E103F091CA
:10162000E2038081E091E703F091E80382FD12C0BC
:1016300090818091EA038F5F8F732091EB03821773
:1016400051F0E091EA03F0E0EF52FC4F958F809368
:10165000EA0301C08081FF91EF919F918F912F91BB
:101660000F900BBE0F900FBE0F901F9018951F92FA
:101670000F920FB60F9211240BB60F922F933F9338
:101680004F935F936F937F938F939F93AF93BF938A
:10169000EF93FF9381ED93E0C7DEFF91EF91BF9150
:1016A000AF919F918F917F916F915F914F913F91FA
:1016B0002F910F900BBE0F900FBE0F901F9018959B
:1016C000E1EDF3E01382128288EE93E0A0E0B0E057
:1016D00084839583A683B78386E493E09183808394
:1016E00085EC90E09587848784EC90E097878687E7
:1016F00080EC90E0918B808B81EC90E0938B828BDF
:1017000082EC90E0958B848B86EC90E0978B868BB7
:10171000118E128E138E148E08951F920F920FB693
:101720000F9211240BB60F922F938F939F93EF93E9
:10173000FF93E0917E04F0917F048081E091840426
:10174000F091850482FD12C09081809187048F5FA3
:101750008F7320918804821751F0E0918704F0E0A4
:10176000E259FB4F958F8093870401C08081FF91E0
:10177000EF919F918F912F910F900BBE0F900FBE05
:101780000F901F9018951F920F920FB60F92112471
:101790000BB60F922F933F934F935F936F937F936B
:1017A0008F939F93AF93BF93EF93FF938EE694E055
:1017B0003BDEFF91EF91BF91AF919F918F917F9110
:1017C0006F915F914F913F912F910F900BBE0F90B2
:1017D0000FBE0F901F901895EEE6F4E01382128270
:1017E00088EE93E0A0E0B0E084839583A683B7837E
:1017F00086E493E0918380838DEC90E095878487E5
:101800008CEC90E09787868788EC90E0918B808BBA
:1018100089EC90E0938B828B8AEC90E0958B848BA3
:101820008EEC90E0978B868B118E128E138E148E19
:1018300008951F920F920FB60F9211240BB60F92BC
:101840002F938F939F93EF93FF93E0911B05F0915C
:101850001C058081E0912105F091220582FD12C0D6
:101860009081809124058F5F8F73209125058217C9
:1018700051F0E0912405F0E0E55FFA4F958F8093F9
:10188000240501C08081FF91EF919F918F912F914D
:101890000F900BBE0F900FBE0F901F9018951F92C8
:1018A0000F920FB60F9211240BB60F922F933F9306
:1018B0004F935F936F937F938F939F93AF93BF9358
:1018C000EF93FF938BE095E0AFDDFF91EF91BF9138
:1018D000AF919F918F917F916F915F914F913F91C8
:1018E0002F910F900BBE0F900FBE0F901F90189569
:1018F000EBE0F5E01382128288EE93E0A0E0B0E026
:1019000084839583A683B78386E493E09183808361
:1019100085ED90E09587848784ED90E097878687B2
:1019200080ED90E0918B808B81ED90E0938B828BAA
:1019300082ED90E0958B848B86ED90E0978B868B83
:10194000118E128E138E148E08951F920F920FB661
:101950000F9211240BB60F922F938F939F93EF93B7
:10196000FF93E091B805F091B9058081E091BE0543
:10197000F091BF0582FD12C090818091C1058F5FFB
:101980008F732091C205821751F0E091C105F0E0FC
:10199000E855FA4F958F8093C10501C08081FF9172
:1019A000EF919F918F912F910F900BBE0F900FBED3
:1019B0000F901F9018951F920F920FB60F9211243F
:1019C0000BB60F922F933F934F935F936F937F9339
:1019D0008F939F93AF93BF93EF93FF9388EA95E024
:1019E00023DDFF91EF91BF91AF919F918F917F91F7
:1019F0006F915F914F913F912F910F900BBE0F9080
:101A00000FBE0F901F901895E8EAF5E0138212823E
:101A100088EE93E0A0E0B0E084839583A683B7834B
:101A200086E493E09183808385E391E095878487C2
:101A300084E391E09787868780E391E0918B808BA8
:101A400081E391E0938B828B82E391E0958B848B91
:101A500086E391E0978B868B118E128E138E148EF7
:101A600008958F929F92AF92BF92CF92DF92EF92A2
:101A7000FF920F931F93CF93DF937C018B016C0137
:101A800082E0C80ED11C4701E5E08E0E911CC0E03B
:101A9000D0E0F60161916F014AE050E0C801C6D084
:101AA0005C016EE2C80167D08A0D9B1DC80FD91F6B
:101AB000C814D90471F74AE050E0F7016581C80104
:101AC000B5D08C0F9D1FDF91CF911F910F91FF908B
:101AD000EF90DF90CF90BF90AF909F908F90089540
:101AE000E5E4F6E086E593E0918380831282138239
:101AF000148215820895CF92DF92EF92FF920F9396
:101B00001F93CF93DF936C017A018B01C0E0D0E08B
:101B1000CE15DF0589F0D8016D918D01D601ED91CB
:101B2000FC910190F081E02DC6011995892B11F4EB
:101B30007E0102C02196ECCFC701DF91CF911F91AA
:101B40000F91FF90EF90DF90CF9008956115710590
:101B500079F0FB0101900020E9F73197AF01461BB6
:101B6000570BDC01ED91FC910280F381E02D19947B
:101B700080E090E00895DC01ED91FC910190F0810E
:101B8000E02D19944F925F926F927F92EF92FF92A5
:101B90000F931F93CF93DF93CDB7DEB7A1970FB607
:101BA000F894DEBF0FBECDBF7C01FA01CB0119A2B4
:101BB000223008F42AE08E010F5D1F4F422E512C77
:101BC000612C712CBF01A30192010E94562AF901D8
:101BD000CA01015011096A3014F4605D01C0695CEA
:101BE000D8016C93232B242B252B61F7B801C70157
:101BF000ADDFA1960FB6F894DEBF0FBECDBFDF916B
:101C0000CF911F910F91FF90EF907F906F905F9019
:101C10004F9008952115310541F4DC01ED91FC91BF
:101C20000190F081E02D642F1994ACCF9A01462FDA
:101C300050E060E070E0EECF8230A9F028F4882315
:101C400049F0813051F00895843021F1E8F0853079
:101C500039F1089510926E00089580916F008D7F84
:101C600080936F000895809170008D7F8093700045
:101C700081E08093B0008091B100887F8460809380
:101C8000B1001092B3000895809171008D7F809310
:101C900071000895809172008D7F80937200089585
:101CA000809173008D7F809373000895CF93C82F28
:101CB0008091BC028C1307C0E6E5F2E0E4918FEF5F
:101CC0008093BC0201C0EFEF8E2FB6DF60E08C2F57
:101CD000CF9125CB1F920F920FB60F9211240BB606
:101CE0000F922F933F934F935F936F937F938F93B5
:101CF0009F93AF93BF93EF93FF9380914E06909184
:101D00004F06A0915006B0915106892B8A2B8B2B40
:101D100051F180914B06E0914C06F0914D06908177
:101D20008927808380914E0690914F06A09150069E
:101D3000B0915106181619061A061B06BCF48091BC
:101D40004E0690914F06A0915006B0915106019712
:101D5000A109B10980934E0690934F06A0935006B7
:101D6000B093510603C08091BC02A0DFFF91EF91B8
:101D7000BF91AF919F918F917F916F915F914F91A3
:101D80003F912F910F900BBE0F900FBE0F901F90A1
:101D9000189540E855E260E070E080E090E000C017
:101DA0008130910571F01CF4892B39F0089582304F
:101DB000910559F0039769F0089526E081ED93E0CD
:101DC0000BC026E08EE694E007C026E08BE095E0AD
:101DD00003C026E088EA95E0AFCB1F920F920FB6C2
:101DE0000F9211240BB60F922F933F934F935F9353
:101DF0006F937F938F939F93AF93BF93EF93FF93D3
:101E00008BEC93EF90932501809324010E94892706
:101E1000FF91EF91BF91AF919F918F917F916F91C2
:101E20005F914F913F912F910F900BBE0F900FBE7E
:101E30000F901F9018958BEC93EF90932501809352
:101E40002401A3E7B0E08C918E7F8C93E0E2F1E077
:101E500080818C7F8083E1E2F1E08081877E8083D6
:101E600080818460808380818C7F80838C9181607D
:101E70008C93089581E008956F927F928F929F9244
:101E8000AF92BF92CF92DF92EF92FF920F931F9388
:101E9000CF93DF935C017B014A0101E010E00E1556
:101EA0001F0564F568018FEFC81AD80AE801CC0F46
:101EB000DD1FC80DD91D6880798061147104E1F0BF
:101EC00068E573E0C3010E94EB2B892B19F419829A
:101ED000188212C06BE573E0C3010E94EB2B892BC3
:101EE00059F4CE14DF0441F06801E2E0CE0ED11CBB
:101EF000198218821B821A828601D1CF81E0F501F6
:101F00008083B401C7010E94E719F50192838183A0
:101F100080E090E0DF91CF911F910F91FF90EF90C3
:101F2000DF90CF90BF90AF909F908F907F906F90F9
:101F3000089582E596E0089580E008950F931F9339
:101F4000CF93DF938B01BA01E901198218829801BE
:101F5000012E000C440B550BFC01818192810E94E3
:101F60009004019621F01983088380E001C081E08C
:101F7000DF91CF911F910F9108950F931F93CF93EE
:101F8000DF931F921F92CDB7DEB7FB018A01B90123
:101F90009E012F5F3F4FAF01FC01818192810E9422
:101FA000001A019639F089819A81F8019183808322
:101FB00080E001C081E00F900F90DF91CF911F91E1
:101FC0000F910895FC01808108950895089581E09E
:101FD000FB01808380E00895089510927C060895A7
:101FE000FC01818192810C94DE19CF93DF93CDB7F0
:101FF000DEB72A970FB6F894DEBF0FBECDBFAC0197
:10200000CB0160E070E049835A836B837C83092EA7
:10201000000CAA0BBB0B8D839E83AF83B8879E01F8
:10202000275F3F4FAE014F5F5F4F68E070E08091E8
:102030006B0690916C0682DF811108C081E02985D2
:102040003A852830310519F480E001C081E02A96F4
:102050000FB6F894DEBF0FBECDBFDF91CF910895CC
:102060000F931F93CF93DF931F921F92CDB7DEB7CD
:102070008B019E012F5F3F4FAC0180916B069091C9
:102080006C065CDF811108C081E029813A8120174C
:10209000310719F480E001C081E00F900F90DF91CB
:1020A000CF911F910F910895CF93DF93EC01109280
:1020B0006F0610926E0610927B0610927A06AC01A3
:1020C00060E070E0CB010E944421AE0161E070E06D
:1020D00080E090E00E94442180916B0690916C0614
:1020E000DF91CF9179CF4F925F926F927F928F92D3
:1020F0009F92AF92BF92CF92DF92EF92FF920F9397
:102100001F93CF93DF931F921F92CDB7DEB79C0131
:102110006C0197FF03C087E0C80ED11C43E0D59443
:10212000C7944A95E1F7C90168E070E00E94432A2C
:102130007C0189010E5F1F4F8091690690916A06AC
:10214000801791070CF0DCC08091670690916806BB
:10215000009731F00E94432B10926A061092690694
:10216000C8010E94AE2A9093680680936706892B67
:1021700029F010936A0600936906C2C0A12CB12C05
:10218000AC14BD040CF05EC0412C512C320100E0B7
:1021900010E098012059394FAE014F5F5F4F61E069
:1021A00070E080916B0690916C06E7DE811198C11A
:1021B00089819A812FEF421A520A620A720A20E933
:1021C00042162FE5520621E0620671043CF0609150
:1021D0007A0670917B068DEE90E02DC0080F191FD6
:1021E0000A30110551F549E050E060E070E080E709
:1021F00096E00E947B2760917A0670917B06882387
:10220000C1F08091780690E06817790709F0B8CF9F
:102210008EEE90E0EADE80917A0690917B06019640
:10222000992790937B0680937A068FEFA81AB80AB5
:10223000A7CF8FEE90E0D9DEA7CF0A3011050CF4BE
:10224000A8CF9ECFEF2809F44BC1C12CD12C760129
:1022500000E010E098012059394FAE014F5F5F4F09
:1022600061E070E080916B0690916C0686DE8111D2
:1022700037C189819A812FEFC21AD20AE20AF20A83
:1022800020E9C2162FE5D20621E0E206F1043CF077
:1022900060917A0670917B068DEE90E02AC0080F5F
:1022A000191F0A30110539F549E050E060E070E08F
:1022B00080E796E00E947B2760917A0670917B060A
:1022C0008823A9F08091780690E06817790709F0D3
:1022D00007C18EEE90E089DE80917A0690917B06B0
:1022E0000196992790937B0680937A06F9C08FEE2A
:1022F00090E07BDEAACF0A3011050CF4ABCFF0C022
:1023000000E010E00C151D050CF077C0412C512C9D
:102310003201A12CB12C480193E0880C991C9A95AC
:10232000E1F72091670630916806C4018A0D9B1D74
:10233000280F391FAE014F5F5F4F61E070E0809161
:102340006B0690916C0619DE8111CAC089819A8151
:102350002FEF421A520A620A720A20E942162FE54A
:10236000520621E0620671043CF060917A06709199
:102370007B068DEE90E034C0A80EB91E8AE0A81648
:10238000B104A9F549E050E0B4018091670690914D
:1023900068060E947B2760917A0670917B068823ED
:1023A000E9F08091670690916806FC01E80DF91D3F
:1023B000808590E06817790709F0A4CF8EEE90E051
:1023C00014DE80917A0690917B060196992790936E
:1023D0007B0680937A060F5F1F4F94CF8FEE90E0BD
:1023E00004DE412C512C3201A12CB12C9ACF2AE0D1
:1023F000A216B1040CF495CF85CFE114F10409F4D1
:102400006AC0680183E0CC0CDD1C8A95E1F7812C61
:10241000912C540100E010E098012059394FAE0191
:102420004F5F5F4F61E070E080916B0690916C06AA
:10243000A4DD811155C089819A812FEF821A920AF9
:10244000A20AB20A20E982162FE5920621E0A2062E
:10245000B1043CF060917A0670917B068DEE90E0BD
:1024600034C0080F191F0A30110589F549E050E002
:1024700060E070E080E796E00E947B2760917A063A
:1024800070917B068823F9F08091780690E06817B8
:10249000790709F58EEE90E0A8DD809167069091AE
:1024A0006806A70160E776E08C0D9D1D0E94DB2B7E
:1024B00080917A0690917B060196992790937B06EE
:1024C00080937A0608C08FEE90E08FDDA0CF0A30AF
:1024D00011050CF4A1CF809167069091680602C0A7
:1024E00080E090E00F900F90DF91CF911F910F91BE
:1024F000FF90EF90DF90CF90BF90AF909F908F9024
:102500007F906F905F904F900895CF92DF92EF92FF
:10251000FF920F931F93CF93DF931F92CDB7DEB738
:102520006C017B018A01452B39F0AB0160E070E062
:10253000C8010E9477278983B701C60156DD811142
:102540000DC00115110551F0B701C80189DD8111D8
:1025500005C061E070E0CE01019682DD0F90DF9151
:10256000CF911F910F91FF90EF90DF90CF90089542
:10257000CF92DF92EF92FF92CF93DF93CDB7DEB78A
:1025800028970FB6F894DEBF0FBECDBF6B01E12CCC
:10259000F12CC982DA82EB82FC822D833E834F8349
:1025A0005887AE014F5F5F4F68E070E0AEDF28965E
:1025B0000FB6F894DEBF0FBECDBFDF91CF91FF9075
:1025C000EF90DF90CF9008950F931F93CF93DF93F9
:1025D000EC018B01AEDC90936C0680936B06009748
:1025E00039F0A801BE0148DCEC01892B19F40BC0BD
:1025F000C7E6D3E080916B0690916C06E6DC109202
:102600006C0610926B06CE01DF91CF911F910F9156
:10261000089580916B0690916C06D4CC2F923F92D6
:102620004F925F926F927F928F929F92AF92BF92E2
:10263000CF92DF92EF92FF920F931F93CF93DF938E
:10264000CDB7DEB769970FB6F894DEBF0FBECDBF2A
:1026500020916F06222309F429C25D8B4C8B688B75
:10266000798B8A8B9B8B9A01AB01BC01CE010196C1
:102670000E94342610E038E0232E312C89819A8183
:10268000181619060CF00DC21F861E861D861C86A4
:1026900089819A81AC85BD85A817B9070CF0F6C170
:1026A000EB81FC812E853F85E20FF31F2081318174
:1026B0003093660620936506848195819093640625
:1026C0008093630642815381509362064093610672
:1026D000468157815093600640935F06820F931F97
:1026E0009C01990F440B550B2E8B3F8B488F598FB4
:1026F000C12CD12C76012E893F89488D598DC21667
:10270000D306E406F50608F0A5C11F8260916506B0
:10271000709166068B01072E000C220B330BD7013C
:10272000C6010496A11DB11D80179107A207B3072A
:1027300028F4E0916106F09162060AC0E4E0F0E05E
:10274000E61BF70BEC0DFD1D80915F069091600676
:10275000E80FF91F4080512C612C712CD701C60164
:102760000596A11DB11D80179107A207B30728F494
:10277000E0916106F09162060AC0E5E0F0E0E61B38
:10278000F70BEC0DFD1D80915F0690916006E80F40
:10279000F91F8081582AD701C6010696A11DB11DD7
:1027A00080179107A207B30728F4E0916106F09122
:1027B00062060AC0E6E0F0E0E61BF70BEC0DFD1D3B
:1027C00080915F0690916006E80FF91F8081682A6A
:1027D000D701C6010796A11DB11D80179107A20759
:1027E000B30728F4E0916106F09162060AC0E7E0C1
:1027F000F0E0E61BF70BEC0DFD1D80915F0690915C
:102800006006E80FF91F8081782A4601570148E0E9
:10281000840E911CA11CB11C081519052A053B0545
:1028200008F4B6C0C016D106E206F30638F480916B
:102830006106909162068C0D9D1D09C0C601861B24
:10284000970B20915F0630916006820F931F68E01E
:1028500070E006DCE0916506F09166069F010F2EA0
:10286000000C440B550BD301C201880D991DAA1D04
:10287000BB1D281739074A075B07C8F08216930665
:10288000A406B50638F42091610630916206C601AF
:10289000089609C0C1018E1B9F0B8C0D9D1D2091B8
:1028A0005F0630916006820F931FB2019BC08601C4
:1028B000BF01685071096C197D0982169306A40640
:1028C000B50638F42091610630916206C60108967B
:1028D00009C0C1018E1B9F0B8C0D9D1D20915F06B1
:1028E00030916006820F931FBBDB8091650690914B
:1028F0006606B101681B790B600F711F640D751DB1
:1029000080915F0690916006ABDB809165069091A7
:102910006606AC0148505109FA01E01BF10BAC010D
:10292000092E000C660B770B84169506A606B706D3
:1029300038F42091610630916206C60108960AC0FB
:102940009101281B390BC9018C0D9D1D20915F063B
:1029500030916006820F931FAF0160E070E00E942B
:1029600077278F832091650630916606A101421B6F
:10297000530B9A01200F311F240D351D40E050E00C
:10298000682F80915F06909160060E94632751C076
:10299000C016D106E206F306C8F46C197D098091D1
:1029A0006106909162068C0D9D1D5ADB8091650633
:1029B00090916606B101681B790B6C0D7D1D640D4D
:1029C000751D80915F06909160060CC0C601861B44
:1029D000970B20915F0630916006B201685F7F4FD0
:1029E000820F931F3DDB8091650690916606AC01D6
:1029F000092E000C660B770B84169506A606B70603
:102A000038F42091610630916206C60108960AC02A
:102A1000D101A81BB90BCD018C0D9D1D20915F0626
:102A200030916006820F931FA20160E070E00E9467
:102A300077278F8361E070E0CE01079611DB182FB6
:102A4000B8E04B0E511C611C711CC40CD51CE61C5B
:102A5000F71C51CE8C859D85880F991FED81FE81D5
:102A6000E80FF91F488959896A897B89808191819A
:102A70000E9476214C855D854F5F5F4F5D874C8757
:102A80008E859F8508969F878E8702CE2C893D89EB
:102A9000488959896A897B89CE0101960E9434262A
:102AA000EDCD112319F08C899D89FEDA69960FB658
:102AB000F894DEBF0FBECDBFDF91CF911F910F9174
:102AC000FF90EF90DF90CF90BF90AF909F908F904E
:102AD0007F906F905F904F903F902F900895CF938D
:102AE000DF93EC01AC0160E070E0CB0197DDAE015B
:102AF00061E070E080E090E0DF91CF918FCDCF93E7
:102B000080916B0690916C0617DAC82F811109C06D
:102B100060E070E0CB01C0D661E070E080E090E062
:102B2000BBD68C2FCF9108950F931F9389019A01E3
:102B3000AB01BC0180916B0690916C0647DA1F9146
:102B40000F9108953F924F925F926F927F928F9272
:102B50009F92AF92BF92CF92DF92EF92FF920F932C
:102B60001F93CF93DF93CDB7DEB767970FB6F89477
:102B7000DEBF0FBECDBF6C017B015A0180916F0695
:102B8000882331F080916F06882309F467C30AC057
:102B90006FE676E080916B0690916C0618DA8111F1
:102BA0005DC3F0CF80916E061A821982882309F4E2
:102BB0006BC0E0E94E2EEFE55E2E66246394712C27
:102BC00000E010E098012B5A394FAE014F5F5F4F84
:102BD00061E070E080916B0690916C06CED9982EE2
:102BE00081114EC089819A81080F191F01151105A5
:102BF00009F446C081E0481A51086108710839F4A7
:102C000060917A0670917B068DEE90E031C00A30BB
:102C1000110591F549E050E060E070E085E596E04F
:102C20000E947B2760917A0670917B068823F1F0E1
:102C300080915D0690E068177907D9F48EEE90E0F8
:102C4000D4D988E0E5E5F6E0DE01199601900D9211
:102C50008A95E1F720917A0630917B062F5F3F4FEE
:102C6000332730937B0620937A060AC08FEE90E0DC
:102C7000BCD91A82198204C00A3011050CF4A2CF03
:102C800081E029813A8124C000E010E078E0672EDD
:102C9000712C29E030E02C0F3D1F200F311FAE01B9
:102CA0004F5F5F4FB301601B710B80916B0690917A
:102CB0006C0663D9982E29813A81811108C0020FD0
:102CC000131F0115110519F00830110514F381E0E7
:102CD000121613060CF080E09110BDC2882309F48F
:102CE000BDC280916E06811104C019861A861B86AA
:102CF0001C8689859A85AB85BC858031910508F055
:102D0000ADC2FC018827E557FF4F8F4F0C94782AFE
:102D1000D6011696ED91FC91179780819181A28141
:102D2000B38189839A83AB83BC83AE014F5F5F4FCE
:102D300064E070E085E190E07FC18D859E85D3D908
:102D4000009731F42FEF3FEFA90161E070E00EC072
:102D5000FC0180809180A280B380A701C501B401ED
:102D60000E94EF20A501940160E070E08DE190E009
:102D700070C28D859E85B7D9009721F42FEF3FEF64
:102D8000A9010FC0DC018D909D90AD90BD90AD016B
:102D900095018401B701C601C4D6A5019401882319
:102DA00019F061E070E002C060E070E08BE190E05B
:102DB00050C28D859E8597D9009721F42FEF3FEF64
:102DC000A9010FC0FC0181909190A190B190BF0129
:102DD000A5019401C6010E94941FA50194018823B6
:102DE00019F061E070E002C060E070E08CE190E01A
:102DF00030C2D6011496ED91FC9115970081118196
:102E0000F80182809380A080B18060E1462E512C31
:102E1000612C712C49825A826B827C8288E090E01E
:102E2000A0E0B0E08D839E83AF83B8879E012F5EC4
:102E30003F4FAE014F5F5F4F68E070E080916B06DF
:102E400090916C067BD8882319F000E010E0BCC09C
:102E500089899A890897C9F7D801ED90FC90B8E064
:102E6000EB0EF11CEE0CFF1CEE0CFF1CC7010E94C8
:102E7000AE2A8C01892B49F349825A826B827C826B
:102E8000C7010F2C000CAA0BBB0B8D839E83AF8355
:102E9000B8879E012F5E3F4FAE014F5F5F4F68E0E6
:102EA00070E080916B0690916C0648D881118CC0BF
:102EB00089899A89089709F087C0D6011296ED9101
:102EC000FC9113974081518162817381D8014D93A8
:102ED0005D936D937C9313974481558166817781CF
:102EE00014964D935D936D937C9317974085518510
:102EF0006285738518964D935D936D937C931B97B4
:102F000084859585A685B785F80184879587A687EA
:102F1000B787108A118A128A138A84E090E0A0E0B1
:102F2000B0E0848B958BA68BB78B8091AA02909191
:102F3000AB02A0E0B0E0808F918FA28FB38FC5016C
:102F40000B2C000CAA0BBB0B848F958FA68FB78F11
:102F5000F401D801909680E090E08A159B0554F426
:102F60004191519160E070E04D935D936D937D933D
:102F70000196F3CF9E012F5E3F4FA801B7018091CC
:102F80006B0690916C060E949E0F81111DC089896D
:102F90009A898E159F05C1F4A70160E070E0C80111
:102FA0000E9477278B8B9E012F5E3F4FAE014D5EB7
:102FB0005F4F61E070E080916B0690916C060E941B
:102FC0009E0F81E080936E06C80167960FB6F89455
:102FD000DEBF0FBECDBFDF91CF911F910F91FF904C
:102FE000EF90DF90CF90BF90AF909F908F907F90A9
:102FF0006F905F904F903F900C94432B8D859E85F2
:10300000AF85B8890097A105B10521F481E08093CF
:103010006D0624C168D8009789F481E090E0A0E0B3
:10302000B0E089839A83AB83BC83AE014F5F5F4F6F
:1030300064E070E082E190E068DA10C1BC01C60192
:103040007ED319821A821B821C82AE014F5F5F4FB2
:1030500064E070E082E190E058DA8111FFC0D6CFE1
:10306000D6011496ED91FC9115970190F081E02D19
:10307000008511858FEF89830115110509F473C04F
:10308000D8016D907C90A280B38020E030E060E0B9
:1030900070E080E090E0861597050CF5F801A281BC
:1030A000B381A20FB31F1296ED91FC911397EE0F0F
:1030B000FF1FEA0DFB1D0190F081E02D16960D908B
:1030C000BC91A02DEA9FA001EB9F500DFA9F500DDF
:1030D0001124640F751F0196285F3F4FDCCF83E1F9
:1030E00090E00E94F50F8111B9C0C12CD12CE12CC8
:1030F000F12CE614F70484F5D8011296ED91FC91B9
:103100001397EC0DFD1D80809180A281B381AA0FE1
:10311000BB1FAA0DBB1D2D913C9186819781289FD5
:103120002001299F500C389F500C1124B201C4017A
:103130000E943010382E920140E050E06981C401B5
:103140000E9463278983B8E0CB0ED11C311086C062
:10315000EFEFEE1AFE0ACDCF61E070E0CE010196EE
:103160000E9430107BC060E070E083E190E00E943C
:10317000F50F74C040E050E060E070E081E190E065
:10318000C4D981116BC01091050760E070E0CB01DC
:10319000AFD4112329F0A70160E070E0CB013EDA43
:1031A000A70160E070E0CB01A3D361E070E080E0B4
:1031B00090E09ED4112331F0A70161E070E080E03F
:1031C00090E02CDAA70161E070E080E090E090D31D
:1031D00010926F0610926E0610927B0610927A067D
:1031E00080916B0690916C060E94ED0F37C081E0D4
:1031F00090E09093C3038093C20340E050E060E00E
:1032000070E086E190E018CF81E0D5018C9326C074
:103210008D859E850E947310009731F42FEF3FEF4C
:10322000A90161E070E013C0FC012081318142817D
:103230005381CA01B9012C8B3D8B4E8B5F8B0E9451
:103240004F212C893D894E895F8960E070E08EE1D5
:1032500090E08ED903C0C7010E94541067960FB644
:10326000F894DEBF0FBECDBFDF91CF911F910F91BC
:10327000FF90EF90DF90CF90BF90AF909F908F9096
:103280007F906F905F904F903F900895CF92DF9224
:10329000EF92FF92CF93DF93EC01C12CD12C7601FA
:1032A000C701B60125D4AE01C701B601B7D9AE0139
:1032B000C701B6011DD380916706909168060097FB
:1032C00031F00E94432B1092680610926706CA9450
:1032D000CD28CE28CF2829F0C12CD12C7601C3943B
:1032E000DFCF80916E06882359F040E050E060E027
:1032F00070E084E190E009D9F82E10926E0601C0CA
:10330000F12C80916F06882341F010926F0681E0C6
:1033100090E09093AB028093AA0280916B0690910B
:103320006C060E94F00F80916B0690916C060E94D3
:10333000E50F8F2DDF91CF91FF90EF90DF90CF9031
:103340000895CF93DF93EC01AC0160E070E0CB0116
:103350000E94A525AE0161E070E080E090E0DF9181
:10336000CF910C94A52560E070E0CB010E9411265E
:1033700061E070E080E090E00C941126CF92DF9243
:10338000EF92FF920F931F93CF93DF93EC016A01AB
:103390007B0100E010E09801D2D701E010E020E0CE
:1033A00030E0B701A601CE01CAD7DF91CF911F91BE
:1033B0000F91FF90EF90DF90CF90089568EE73E04B
:1033C00080E090E00E94620880E090E008950E9412
:1033D0009B0826E040E050E16EE070E081ED93E074
:1033E0000E949C0A81ED93E00E94E609892B29F056
:1033F00081ED93E00E94000AF5CF80E090E008950F
:10340000AF92BF92CF92DF92EF92FF920F931F93F2
:10341000CF93DF931F921F92CDB7DEB77A01890158
:10342000F9011182108281ED93E069837A830E9411
:10343000E60969817A81892B99F15B01DD24D394B6
:1034400085E6C82E80917C06811124C081ED93E031
:103450000E94000A85369105A9F7D0927C06F501F5
:10346000C1925F01F80180819181019691838083EF
:10347000E9CF81ED93E00E94000A8F3FFFEF9F07A5
:1034800049F0F50181935F01F801808191810196F6
:1034900091838083F801808191818E159F0548F387
:1034A00080E090E00F900F90DF91CF911F910F91EE
:1034B000FF90EF90DF90CF90BF90AF9008950F9363
:1034C0001F93CF93DF93EA01890181ED93E00E947E
:1034D0007B0DF801D183C08380E090E0DF91CF9134
:1034E0001F910F910895EF92FF920F931F93CF9327
:1034F000DF93DC01EA01F90114968D919C911597F7
:1035000012960D911C911397080F191F288139816C
:1035100018964D915C9119974217530728F04D91D9
:103520005C911197452B39F17801E21AF30A18964C
:103530004D915C911997481B590B4E0D5F1D461715
:10354000570794F1A901460F571F40175107E0F0A4
:10355000F182E082338322836E197F09758364834D
:10356000161617061CF4382F292F02C030E020E071
:103570003683278313C018968D919C911997821BCF
:10358000930B8617970784F07183608333832283BC
:10359000158214821782168288819981680F791F9B
:1035A0007983688380E001C081E0DF91CF911F9132
:1035B0000F91FF90EF900895CF92DF92EF92FF92DC
:1035C000CF93DF936B017C0184E48C9DE0018D9DA2
:1035D000D00D1124C358D94F8AA99BA9009721F077
:1035E0000E94432B1BAA1AAA84E48C9DF0018D9D96
:1035F000F00D1124E358F94F86A997A9009711F00F
:103600000E94432B84E48C9DF0018D9DF00D1124CC
:10361000E358F94F138A128A168A178A108E118E70
:10362000128E138E148E158E168E178E10A211A266
:1036300081E090E093A382A315A214A216A217A280
:1036400010A611A613A612A615A614A616A617A6AE
:1036500010AA11AA13AA12AA15AA14AA17AA16AA7E
:1036600011AE10AE12AE13AE14AE15AEDF01DE9683
:103670001D921D921D921C921397EE5BFF4F1182BB
:103680001082DF91CF91FF90EF90DF90CF9008955F
:103690000F931F93CF93DF93EB01DC018D919C91EE
:1036A000FC01A681B781E881F98123E0EE0FFF1FBD
:1036B0002A95E1F712962D913C911397E20FF31F93
:1036C00000811181AC85BD859D01220F331FDC0176
:1036D00012968D919C911397D901A80FB91F8D91C6
:1036E0009C9124813581232B19F461E070E002C0A4
:1036F00062E070E0689F9001699F300D789F300D07
:10370000112488859985289FB001299F700D389FC5
:10371000700D1124EC81FD812E9FC0012F9F900D13
:103720003E9F900D1124800F911FFA019183808399
:1037300073836283DF91CF911F910F9108952F9230
:103740003F924F925F926F927F928F929F92AF9231
:10375000BF92CF92DF92EF92FF920F931F93CF937E
:10376000DF9300D000D0CDB7DEB7DC011496ED9129
:10377000FC9115970190F081E02D808591859A83C9
:103780008983A281B381BC83AB83FB01819091903B
:10379000A190B1908F01C12CD12C7601C814D9040D
:1037A000EA04FB040CF05FC0D80114964D905D90C4
:1037B0006D907C90179718964D915D916D917C91CD
:1037C0001B97F8017096FE83ED83F801A081B1810B
:1037D00083E0AA0FBB1F8A95E1F7E981FA81828114
:1037E0009381A80FB91F2D903C901197F801248563
:1037F0003585220F331F8B819C81280F391FF901DA
:103800000081118114968D919C911597892B19F443
:1038100081E090E002C082E090E0809F9001819F73
:10382000300D909F300D1124249F8001259F100D95
:10383000349F100D1124249DC001259D900D349DB1
:10384000900D1124A8016D817E81820D931D0E942F
:10385000DB2B8D819E81080F191F9FEFC91AD90A92
:10386000E90AF90A9BCF26960FB6F894DEBF0FBE81
:10387000CDBFDF91CF911F910F91FF90EF90DF901F
:10388000CF90BF90AF909F908F907F906F905F9000
:103890004F903F902F900895CF93DF93DB01A35477
:1038A000BD4F2C91222369F024E4269FF001279F2D
:1038B000F00D1124E358F94FEF0119922A95E9F719
:1038C0001C9224E4269FF001279FF00D1124E35859
:1038D000F94F14821582168217821186108613867C
:1038E0001286118A108A17861686DF91CF9164CED0
:1038F0002F923F924F925F926F927F928F929F9200
:10390000AF92BF92CF92DF92EF92FF920F931F93ED
:10391000CF93DF93CDB7DEB728970FB6F894DEBF0D
:103920000FBECDBF6B017C011A0184E48C9D900118
:103930008D9D300D11242358394FF90184819581D3
:10394000A681B781892B8A2B8B2B09F4B8C0A12CB7
:10395000B12C412C512C320138872F83C901049698
:103960009A838983D9011896BC83AB83E981FA8154
:1039700080819181A281B381481659066A067B062F
:1039800094F5AB81BC81ED91FC91EA0DFB1D228188
:1039900033818901812C912C82149304C4F4D801C1
:1039A000ED91FC91309769F0848195812D833E8360
:1039B0000E94432BF801808191810E94432B3E811C
:1039C0002D81FFEF8F1A9F0A0E5F1F4FE5CFC901B0
:1039D0000E94432B8FEF481A580A680A780A94E02D
:1039E000A90EB11CC3CFAF81B88518968D919C915B
:1039F00019970E94432BEF81F88582859385892B47
:103A000059F1A12CB12C812C912C84E48C9D800146
:103A10008D9D100D11240957194F8214930484F4BD
:103A2000D801ED91FC91EA0DFB1D848195810E94E6
:103A3000432BBFEF8B1A9B0AEEE0AE0EB11CEDCF0D
:103A400084E48C9DF0018D9DF00D1124E358F94F15
:103A5000828593850E94432B84E48C9D90018D9DEB
:103A6000300D112489010358194FD80150968D91BA
:103A70009C9151970E94432BF801868597850E945F
:103A8000432BC701B60198DDC701B60128960FB6D2
:103A9000F894DEBF0FBECDBFDF91CF911F910F9184
:103AA000FF90EF90DF90CF90BF90AF909F908F905E
:103AB0007F906F905F904F903F902F90EDCE289623
:103AC0000FB6F894DEBF0FBECDBFDF91CF911F912F
:103AD0000F91FF90EF90DF90CF90BF90AF909F90AD
:103AE0008F907F906F905F904F903F902F900895B0
:103AF00024E4269FF001279FF00D1124E358F94F8D
:103B0000828993890497029758F485E090E0938B1B
:103B1000828B8FEF9FEFDC01828F938FA48FB58F05
:103B200008952F923F924F925F926F927F928F9261
:103B30009F92AF92BF92CF92DF92EF92FF920F933C
:103B40001F93CF93DF93CDB7DEB7E0970FB6F8940E
:103B5000DEBF0FBECDBF9AA389A31B016A01280156
:103B6000390184E4849D8001859D100D1124980104
:103B70002358394F7901D9014D925D926D927C9213
:103B80001397AB01C301B201B3DEF801EF57F94F50
:103B9000D6014D915D916D917D918D01CA0140835A
:103BA00051836283738364E070E00E94942AF7017A
:103BB00091878087892B09F499C11E8E1D8E198EDD
:103BC0001A8E1B8E1C8EF8A2EF8E97012C5F3F4F32
:103BD00038A72FA32C5F3F4F3AA729A7EFA1F8A53D
:103BE00080819181A281B381298D3A8D4B8D5C8D2D
:103BF000281739074A075B070CF0E4C0A9A5BAA546
:103C00008D919C912D8D3E8D280F391F3A8B298BDC
:103C1000D801ED91FC91EE0FFF1FA9A1BAA18D91E2
:103C20009C91E80FF91F80819181F9019183808334
:103C3000D80114962D913D914D915C9117972BA32E
:103C40003CA34DA35EA3085F1F4F62E070E0C1017B
:103C50000E94942AE989FA8993838283892B09F443
:103C600045C11D8A1E8A1F8A188E2D893E894F895B
:103C7000588D8BA19CA1ADA1BEA1281739074A0779
:103C80005B070CF08CC0D801ED90FC90EE0CFF1C93
:103C9000E989FA89C280D380CE0CDF1C68E070E02D
:103CA00081E090E00E94942AD6018D939C93E9894B
:103CB000FA8982819381FC01EE0DFF1DC080D180C5
:103CC000C114D10409F412C1D80114964D915D912B
:103CD0006D917C911797CA01F601408351836283ED
:103CE0007383085F1F4F64E070E00E94942AD6013E
:103CF00015969C938E931497892B09F4F7C01C8A10
:103D00001B8A812C912C5401F60180819181A28122
:103D1000B38188169906AA06BB06A4F5F601E480CD
:103D2000F5802B893C89E20EF31EF801DE01119625
:103D300080E101900D928A95E1F7005F1F4FA70186
:103D4000BE016F5F7F4FA9A1BAA114968D919C917E
:103D500015979EDCF60126813781D70112968D9149
:103D60009C911397820F931F97838683BFEF8B1AC3
:103D70009B0AAB0ABB0A2B893C892C5F3F4F3C8BCB
:103D80002B8BC2CF2D893E894F89588D2F5F3F4F96
:103D90004F4F5F4F2D8B3E8B4F8B588F66CF298DAA
:103DA0003A8D4B8D5C8D2F5F3F4F4F4F5F4F298F6B
:103DB0003A8F4B8F5C8F2D8D3E8D2C5F3F4F3E8F0A
:103DC0002D8F0CCF6EE070E0C1010E94942AAF8D60
:103DD000B8A11B969C938E931A97812C912CA12CA1
:103DE000B12CC12CD12C24E4249DC001259D900D23
:103DF00011249C012957394F3A8B298B21E030E05F
:103E0000A214B3040CF04AC0D8014D915D916D919C
:103E10007D918D01CA01E989FA89E080F180E80C81
:103E2000F91C57FD63C0D70111963C932E93009760
:103E3000A1F02FA738AB4BA75CA76DA77EA70E9468
:103E4000AE2AF701958384832FA538A94BA55CA5DD
:103E50006DA57EA5892B31F449C0D70115961C921A
:103E60001E921497F701538342838481958197832F
:103E70008683918780871386128681E090E0452BA8
:103E8000462B472B11F480E090E0C80ED91EFFEFBF
:103E9000AF1ABF0A4EE0840E911CB2CF84E4849D19
:103EA0008001859D100D11240358194FD8011D96CE
:103EB0001C921E921C97C60133E0880F991F3A95F9
:103EC000E1F70E94AE2AF801918B808B892B71F06B
:103ED000C601880F991F0E94AE2AD8011F969C9395
:103EE0008E931E97892B11F080E005C0A101C301BC
:103EF000B201FEDC81E0E0960FB6F894DEBF0FBEA3
:103F0000CDBFDF91CF911F910F91FF90EF90DF9088
:103F1000CF90BF90AF909F908F907F906F905F9069
:103F20004F903F902F9008952F923F924F925F9223
:103F30006F927F928F929F92AF92BF92CF92DF92B9
:103F4000EF92FF920F931F93CF93DF93CDB7DEB71E
:103F500068970FB6F894DEBF0FBECDBF9C8B8B8BDE
:103F6000DB0149015A0124E4289DC001299D900DDF
:103F700011249C012358394F79012D913C911197BF
:103F8000F701358B248BFC01ED56F94F14964D91BA
:103F90005D916D917C911797408351836283738308
:103FA000FC01E956F94F18964D915D916D917C9108
:103FB0001B974083518362837383FC01E556F94F5D
:103FC0001C964D915D916D917C911F97408351831B
:103FD00062837383FC01E555F94F50965C915097CD
:103FE00051964C91519752963C91529753962C91E1
:103FF000539750834183328323838D010C5E1F4F7F
:10400000852F942F181619060CF068C0880F991F79
:10401000880F991F0E94AE2AD701D3969C938E9346
:10402000D297892B09F4BCC0212C312C412C512C66
:1040300032019701225D3F4F3E8B2D8B2C5F3F4F0E
:10404000388F2F8B2E5F3F4F3A8B298BB301A20104
:104050002FEF421A520A620A720AED89FE898081A4
:104060009181A281B381481759076A077B074CF5F4
:10407000AF89B88DCD90DC90C20CD31CF801DE0165
:10408000119680E101900D928A95E1F7005F1F4F34
:10409000A601BE016F5F7F4FEB89FC89848195810A
:1040A000F7DAA989BA898D919C911197F60122813D
:1040B0003381820F931F8D939C93F4E02F0E311C5C
:1040C000C5CFD701D4968D919C91D5970E94AE2AE9
:1040D000F70197AB86AB892B09F462C0F8018081A8
:1040E0009181A281B38124E4289DF001299DF00DE6
:1040F0001124E358F94FAC01BD014D7F21E030E0C0
:10410000452B462B472B11F020E030E033A322A3B0
:1041100024E4289DF001299DF00D1124E358F94F66
:104120000197A109B10921E030E00297A105B1058D
:1041300010F020E030E035A324A384E4889DF00152
:10414000899DF00D1124CF018D55994FD8011496FA
:104150004D915D916D917C911797DC014D935D932D
:104160006D937C931397E358F94F868D978DA0A19B
:10417000B1A1B7FF10C0B095A095909581959F4FC4
:10418000AF4FBF4F82AF93AFA4AFB5AF168E178EB0
:1041900010A211A20AC012AE13AE14AE15AE05C025
:1041A000C501B40109DA81E001C080E068960FB66C
:1041B000F894DEBF0FBECDBFDF91CF911F910F915D
:1041C000FF90EF90DF90CF90BF90AF909F908F9037
:1041D0007F906F905F904F903F902F900895CF9277
:1041E000DF92EF92FF92CF93DF931092050724E4C2
:1041F000269FF001279FF00D1124E358F94F15A6D3
:1042000014A620E030E0C12CD12CDF011A96C1E0C9
:10421000D0E0C416D506D4F4ED91FC911197E20FCD
:10422000F31FE280F3801E141F0454F4E480F58031
:10423000F782E682F186E08613861286D183C083F8
:10424000EFEFCE1ADE0A225F3F4FE3CF24E4269F32
:10425000F001279FF00D1124E358F94F13A612A681
:1042600011AE10AEDF01DE961D921D921D921C92C2
:10427000139782E090E0938B828BDF91CF91FF9038
:10428000EF90DF90CF90089524E4269FF001279FC0
:10429000F00D1124E358F94F138A128A29CB24E434
:1042A000269FF001279FF00D1124E358F94F8289D2
:1042B000938981309105C8F08530910518F00597F4
:1042C00069F008958FEF9FEFDC01828F938FA48FA9
:1042D000B58F85E090E0938B828B08958FEF9FEFF1
:1042E000DC01828F938FA48FB58F089524E4249FDF
:1042F000F001259FF00D1124E358F94F2EE0AC0199
:10430000249FC001259F900D11240284F385E02D88
:10431000E80FF91F81E080930507828593859187D7
:104320008087408551852681378181E090E0421762
:10433000530711F080E090E09183808308952F92DD
:104340003F924F925F926F927F928F929F92AF9225
:10435000BF92CF92DF92EF92FF920F931F93CF9372
:10436000DF93CDB7DEB7C255D1090FB6F894DEBFE3
:104370000FBECDBF21969FAF8EAF21974BA75CA7F5
:104380006DA77EA74801590184E4889D8001899D1D
:10439000100D1124F801E358F94F22853385279633
:1043A0003FAF2EAF279782899389029709F058C1B2
:1043B00086A597A5A0A9B1A9892B8A2B8B2B29F4B7
:1043C00084E090E0938B828B4BC184899589219600
:1043D0004EAD5FAD21974817590709F041C186A935
:1043E00097A99AAB89AB1EAE1DAE19AE1AAE1BAE25
:1043F0001CAE8F01DF019E962996BFAFAEAF299705
:10440000F2962B96FFAFEEAF2B979801285C3F4FAB
:104410002D963FAF2EAF2D97A8014A5D5F4F2F9687
:104420005FAF4EAF2F97C801829661969FAF8EAF58
:1044300061971A976396BFAFAEAF63972996EEADBB
:10444000FFAD299780819181A281B38129AD3AADD9
:104450004BAD5CAD281739074A075B070CF0DFC08E
:104460002B96EEADFFAD2B97808191812DAD3EADAA
:10447000280F391F3EAB2DABD90112960D90BC9180
:10448000A02D2396BFAFAEAF2397B695A795B6954F
:10449000A7952596BFAFAEAF25972D96EEADFFAD94
:1044A0002D9780819181892B09F48EC02F96AEAD16
:1044B000BFAD2F97CD90DD90ED90FC9029A83AA844
:1044C000F9010190F081E02DF8ABEFA718AE1FAA1B
:1044D0008FA998AD2596AEADBFAD25978A179B07DE
:1044E0000CF072C06196AEADBFAD61978D919C919D
:1044F000892B49F1EFA5F8A9408051806280738033
:10450000A7019601C301B20157D787FD0AC0A701D1
:104510009601D1016D917D918D919C91FED587FD84
:1045200086C0A7019601C301B20146D718165CF4F4
:10453000A7019601F1016081718182819381EDD59E
:10454000882309F474C06396AEADBFAD63978D91B7
:104550009C91892B49F1EFA5F8A940805180628098
:104560007380A7019601C301B201D7D587FF0AC0A6
:10457000A7019601D1016D917D918D919C911CD7E0
:1045800087FF55C0A7019601C301B201C6D58111AD
:104590000BC0A7019601F101608171818281938135
:1045A0000BD718160CF443C02FA938AD2F5F3F4F1F
:1045B00038AF2FAB34E0230E311C4FA558A94C5F08
:1045C0005F4F58AB4FA784CFEDA9FEA960817181E1
:1045D00023964EAD5FAD239789A99AA90E94DB2B44
:1045E00025968EAD9FAD2597880F991F880F991F2F
:1045F00029A93AA9280F391F3AAB29AB89AD9AAD41
:10460000ABADBCAD0196A11DB11D89AF9AAFABAFEB
:10461000BCAFADADBEAD1496BEAFADAF0FCF81E0B8
:1046200090E0D801D9969C938E93D89719C084E4D2
:10463000889DF001899DF00D1124E358F94F868D76
:10464000978DA0A1B1A1892B8A2B8B2B09F05CC27D
:1046500084E090E0938B828B86AD97AD93A782A781
:1046600084E4889DF001899DF00D1124E358F94FF1
:10467000828993898230910571F482AD93ADA4ADA6
:10468000B5AD181619061A061B060CF044C2CC2448
:10469000C394D12C05C0049709F03DC2C12CD12C84
:1046A0008EE02196EEADFFAD21978E9F70018F9F1A
:1046B000F00C112427962EAD3FAD2797E20EF31E86
:1046C000D70112964D915C9113974115510509F44C
:1046D00022C216968D919C9117979AA789A7FE01E1
:1046E000319684E1DF011D928A95E9F7898A9A8AD9
:1046F000AB8ABC8AC114D10409F457C084E4889DF4
:10470000F001899DF00D1124E358F94FDF01DE9689
:104710004D905D906D907C9082AD93ADA4ADB5ADA4
:10472000481659066A067B0609F03FC0F701648106
:1047300075810084F185E02D84819581A681B78102
:104740009C018D8B9E8BAF8BB88F285F3F4F3E8B2C
:104750002D8BD70118968D919C911997280F391F91
:1047600019963C932E93189718968D919C911997B2
:10477000460F571F841B950B97FD06C0860F971F8A
:1047800019969C938E93189784E4889DF001899DD7
:10479000F00D1124E554F94FB1E04B1A51086108AE
:1047A000710840825182628273829E012B5E3F4F6C
:1047B000AE01475D5F4F64E170E0C7010E94731A6C
:1047C000082F10E00115110509F089C18CE090E077
:1047D000A0E0B0E08D839E83AF83B8879E01235E07
:1047E0003F4FAE01475D5F4F64E070E0C7010E943C
:1047F000731A082F10E00115110509F070C180E14E
:1048000090E0A0E0B0E08D839E83AF83B8874D8DAC
:104810005E8DBE01655D7F4F8F8D98A1CCD78BA13A
:104820009CA1009759F06D8D7E8DEBE2F0E0EC0FCE
:10483000FD1F6E0F7F1F49A15AA1BDD71DA21EA249
:104840001FA218A621962EAD3FAD2197220F331F30
:1048500038AF2FAB24E4289DC001299D900D112471
:104860008358994FAC014C5F5F4F5AAF49AFDC01A1
:104870001896BEAFADAF2DA13EA14FA158A529AB53
:104880003AAB4BAB5CABE9ADFAAD80819181A281D3
:10489000B381281739074A075B070CF0CBC0ADADD1
:1048A000BEADED91FC9189A99AA9880F991F880F37
:1048B000991FE80FF91FA081B1818C91882309F419
:1048C000ABC0833009F4A8C00280F381E02D2FA98A
:1048D00038ADE20FF31F4081518158AB4FA7452BF4
:1048E00009F49AC089859A85AB85BC850196A11D7E
:1048F000B11D89879A87AB87BC879E01235E3F4F96
:10490000AE01475D5F4F64E070E0C7010E94731A1B
:1049100090E0009709F0E2C08D819E81AF81B8855B
:104920000496A11DB11D8D839E83AF83B8874D8DE5
:104930005E8DBE016B5D7F4F8F8D98A13CD78BA1A3
:104940009CA1009759F06D8D7E8DA5E2B0E0AC0F73
:10495000BD1F6A0F7B1F49A15AA12DD71EAA1DAAF0
:10496000412C512C3201EFA5F8A980819181A281BF
:10497000B381481659066A067B060CF04DC0EFA5B8
:10498000F8A9248035802DA93EA9220E331ED1011D
:1049900012966D917C9113979E01235E3F4FAE015D
:1049A000475D5F4FC7010E94731A90E0009709F0BE
:1049B00095C0F10182819381092E000CAA0BBB0BDB
:1049C0004D815E816F817885840F951FA61FB71F6B
:1049D0008D839E83AF83B887608171814D8D5E8D9D
:1049E0008F8D98A1E8D68BA19CA1009751F0D101A1
:1049F0006D917C912D8D3E8D620F731F49A15AA13F
:104A0000DAD6BFEF4B1A5B0A6B0A7B0AEDA9FEA947
:104A10003496FEABEDABA7CF49A85AA86BA87CA8EB
:104A2000FFEF4F1A5F0A6F0A7F0A4DA25EA26FA2C4
:104A300078A621CF89859A85AB85BC85892B8A2B61
:104A40008B2B09F44CC08AE190E0A0E0B0E08983B0
:104A50009A83AB83BC8321962EAD3FAD2197C901CC
:104A6000330FAA0BBB0B8D879E87AF87B88B4D8901
:104A70005E89BE016F5F7F4F8F89988D9CD68B8D2D
:104A80009C8D009759F06D897E8941E050E04C0F74
:104A90005D1F640F751F498D5A8D8DD689A59AA506
:104AA000D70117969C938E93169711961C921E927F
:104AB000CD2889F184E4889DF001899DF00D1124B1
:104AC000E554F94F80819181A281B3810196A11DA6
:104AD000B11D80839183A283B3831DC08C01CD2837
:104AE000D1F4012BC1F084E4889DF001899DF00D83
:104AF0001124E358F94F81E090E095A784A785E061
:104B000090E0938B828B07C083E090E0938B828B45
:104B100081E090E0A3CDCE5ADF4F0FB6F894DEBF10
:104B20000FBECDBFDF91CF911F910F91FF90EF90FE
:104B3000DF90CF90BF90AF909F908F907F906F90BD
:104B40005F904F903F902F900895CF92DF92EF9219
:104B5000FF920F931F936B017C0184E48C9DF00105
:104B60008D9DF00D1124E358F94F828993890097A8
:104B700009F450C00197B9F482A593A59C012F5F59
:104B80003F4F33A722A7092E000CAA0BBB0B028DA7
:104B9000138D248D358D80179107A207B307D1F5AA
:104BA000C701B6011CDB84E48C9DF0018D9DF00DE6
:104BB0001124E358F94F82899389039759F582A507
:104BC00093A59C012F5F3F4F33A722A7092E000C0E
:104BD000AA0BBB0B468D578D60A171A18417950759
:104BE000A607B707BCF086AD97AD93A782A784E070
:104BF00090E0938B828B82AD93ADA4ADB5AD1816CA
:104C000019061A061B0634F4EE5BFF4F81E090E0B4
:104C1000918380831F910F91FF90EF90DF90CF9051
:104C2000089524E4269FF001279FF00D1124E358F6
:104C3000F94F828993890497B1F482A593A50196CF
:104C400093A782A7092E000CAA0BBB0B4689578994
:104C5000608D718D84179507A607B70721F485E04D
:104C600090E0938B828B08952F923F924F925F92A8
:104C70006F927F928F929F92AF92BF92CF92DF926C
:104C8000EF92FF920F931F93CF93DF93CDB7DEB7D1
:104C90002E970FB6F894DEBF0FBECDBF49835A835F
:104CA0006B837C834901442E552E24E4249DF0011E
:104CB000259DF00D1124E358F94F22883388910186
:104CC00024503109158614862230310508F0DDC0E4
:104CD000DC0111961C921E9213961C921E92129742
:104CE000A12CB12C60E070E09F01265F3F4F388718
:104CF0002F837F013CE0E30EF11CDF015096BA8761
:104D0000A9879F01225F3F4F3C872B876815790554
:104D10000CF06FC0EF81F885A081B1819D012A0D53
:104D20003B1D3E872D87D9012D913C911197232B57
:104D300009F059C018960D911C9119971296ED9192
:104D4000FC911397FE83ED8316962D913C91179756
:104D5000D7014D915C91DA01E3E0AA0FBB1FEA9500
:104D6000E1F7E985FA85C080D180FD01EC0DFD1DDC
:104D7000440F551FAB85BC85CD90DC904C0D5D1D5F
:104D8000DA016D937C93D7014D915C9111974F5F40
:104D90005F4F4D935C9313830283AD85BE851B9655
:104DA0003C932E931A970217130748F4201B310BDC
:104DB00031832083158214821782168214C0AD8538
:104DC000BE851496CD90DC9015974D815E814C0D7B
:104DD0005D1D401B510B518340832C193D093583C8
:104DE0002483D782C6826F5F7F4FBEE0AB0EB11CBB
:104DF0008DCF24E4249D8001259D100D112403589E
:104E0000194FF80124853585DC0111963C932E93CA
:104E10004089518913965C934E9312974685578526
:104E200015965C934E931497232BA1F5B5E02B16A2
:104E3000310481F510920507828D938DA48DB58D77
:104E4000AE014F5F5F4F64E070E08F3F9F4FAF4F09
:104E5000BF4F59F480E290E00E94851269817A8107
:104E60008B819C81A40110DA15C08FE190E00E9433
:104E70008512D8019B961C921E929A9781E090E031
:104E800053969C938E93529705C0FC011182108219
:104E9000138212822E960FB6F894DEBF0FBECDBFDE
:104EA000DF91CF911F910F91FF90EF90DF90CF9006
:104EB000BF90AF909F908F907F906F905F904F903A
:104EC0003F902F900895DC01A40FB51F240F351FCC
:104ED000AD01481B590B4217530738F4ED91E627F3
:104EE000F0E0E95AFD4F6491F3CF862F08959A01BF
:104EF000AB016FEFE8CFCF93FC01E60FF71FE40F94
:104F0000F51FC081F4DF91E0C81390E0892FCF91A5
:104F100008958091060791E0980F909306078823E3
:104F200049F021E030E03093080720930707809391
:104F30000607089578940E94E301F894809106078B
:104F40008150809306070C948004FF920F931F9367
:104F5000CF93DF931F921F92CDB7DEB7FF24F39458
:104F6000FA820E949B080E94C90E00914003109192
:104F70004103F8011182108260E070E080E090E06F
:104F80000E9489040E948F037894C80182960E942F
:104F9000880481E090E00E9484041982AE014F5F92
:104FA0005F4F61E070E0F801828193810E942E04DE
:104FB0008981882311F0F801F6A20E948F04F894E9
:104FC0000E941B0FF80180819181892B19F481E0E7
:104FD00096A1911180E08A8378947894FF24F394C9
:104FE0008A81882321F11982AE014F5F5F4F61E012
:104FF00070E0F801828193810E946A04898188238C
:1050000011F0F801F6A2F80180819181892B19F441
:1050100081E096A1911180E08A838A81882319F02A
:105020000E943A0F02C080E090E08A83D9CF81E0ED
:1050300090E00E9486040E942D04F89480E090E0A5
:105040000F900F90DF91CF911F910F91FF900895D6
:105050005058BB27AA270ED075C166D130F06BD14E
:1050600020F031F49F3F11F41EF45BC10EF4E09583
:10507000E7FB51C1E92F77D180F3BA1762077307B5
:105080008407950718F071F49EF58FC10EF4E09532
:105090000B2EBA2FA02D0B01B90190010C01CA01F2
:1050A000A0011124FF27591B99F0593F50F4503E9D
:1050B00068F11A16F040A22F232F342F4427585F8F
:1050C000F3CF469537952795A795F0405395C9F7A7
:1050D0007EF41F16BA0B620B730B840BBAF091505F
:1050E000A1F0FF0FBB1F661F771F881FC2F70EC0FE
:1050F000BA0F621F731F841F48F4879577956795D1
:10510000B795F7959E3F08F0B3CF9395880F08F0B9
:105110009927EE0F979587950895D9D008F481E0E7
:1051200008950CD00FC107D140F0FED030F021F42B
:105130005F3F19F0F0C0511139C1F3C014D198F399
:105140009923C9F35523B1F3951B550BBB27AA2708
:1051500062177307840738F09F5F5F4F220F331F7A
:10516000441FAA1FA9F333D00E2E3AF0E0E830D046
:1051700091505040E695001CCAF729D0FE2F27D049
:10518000660F771F881FBB1F261737074807AB0717
:10519000B0E809F0BB0B802DBF01FF2793585F4F8C
:1051A0002AF09E3F510568F0B6C000C15F3FECF3A6
:1051B000983EDCF3869577956795B795F7959F5F51
:1051C000C9F7880F911D9695879597F90895E1E0A5
:1051D000660F771F881FBB1F621773078407BA0704
:1051E00020F0621B730B840BBA0BEE1F88F7E0955F
:1051F000089504D06894B111D9C00895BCD088F046
:105200009F5790F0B92F9927B751A0F0D1F0660FB2
:10521000771F881F991F1AF0BA95C9F712C0B130CD
:1052200081F0C3D0B1E00895C0C0672F782F8827E0
:10523000B85F39F0B93FCCF3869577956795B3950C
:10524000D9F73EF490958095709561957F4F8F4F7B
:105250009F4F0895E89409C097FB3EF49095809580
:10526000709561957F4F8F4F9F4F9923A9F0F92F2C
:1052700096E9BB279395F695879577956795B795AA
:10528000F111F8CFFAF4BB0F11F460FF1BC06F5F90
:105290007F4F8F4F9F4F16C0882311F096E911C0A2
:1052A000772321F09EE8872F762F05C0662371F0C3
:1052B00096E8862F70E060E02AF09A95660F771FD7
:1052C000881FDAF7880F9695879597F90895990FB3
:1052D0000008550FAA0BE0E8FEEF16161706E807C0
:1052E000F907C0F012161306E407F50798F0621BE1
:1052F000730B840B950B39F40A2661F0232B242BB6
:10530000252B21F408950A2609F4A140A6958FEFD4
:10531000811D811D089597F99F6780E870E060E026
:1053200008959FEF80EC089500240A94161617063E
:1053300018060906089500240A9412161306140686
:1053400005060895092E0394000C11F4882352F0E9
:10535000BB0F40F4BF2B11F460FF04C06F5F7F4FA1
:105360008F4F9F4F089557FD9058440F551F59F088
:105370005F3F71F04795880F97FB991F61F09F3F42
:1053800079F087950895121613061406551FF2CF6B
:105390004695F1DF08C0161617061806991FF1CFBB
:1053A00086957105610508940895E894BB276627E2
:1053B0007727CB0197F908958ADF08F48FEF0895D6
:1053C0000BD0C0CFB1DF28F0B6DF18F0952309F07D
:1053D000A2CFA7CF1124EACFC6DFA0F3959FD1F3C8
:1053E000950F50E0551F629FF001729FBB27F00D93
:1053F000B11D639FAA27F00DB11DAA1F649F6627E8
:10540000B00DA11D661F829F2227B00DA11D621F36
:10541000739FB00DA11D621F839FA00D611D221FF0
:10542000749F3327A00D611D231F849F600D211DD4
:10543000822F762F6A2F11249F5750408AF0E1F077
:1054400088234AF0EE0FFF1FBB1F661F771F881FC0
:1054500091505040A9F79E3F510570F05CCFA6CF08
:105460005F3FECF3983EDCF3869577956795B795AB
:10547000F795E7959F5FC1F7FE2B880F911D9695D5
:10548000879597F9089597FB072E16F4009406D098
:1054900077FD08D035D007FC05D03EF49095819576
:1054A0009F4F0895709561957F4F0895A1E21A2E40
:1054B000AA1BBB1BFD010DC0AA1FBB1FEE1FFF1FB8
:1054C000A217B307E407F50720F0A21BB30BE40B08
:1054D000F50B661F771F881F991F1A9469F760954F
:1054E0007095809590959B01AC01BD01CF01089509
:1054F000EE0FFF1F881F8BBF0790F691E02D1994C8
:10550000AA1BBB1B51E107C0AA1FBB1FA617B707E9
:1055100010F0A61BB70B881F991F5A95A9F7809505
:105520009095BC01CD0108950F931F93CF93DF9306
:10553000869F8001879F100D969F100D1124C80132
:105540000DD0EC01009721F0A80160E070E03CD1A3
:10555000CE01DF91CF911F910F910895CF93DF93EB
:105560008230910510F482E090E0E0915607F091CE
:10557000570720E030E0C0E0D0E0309711F14081E3
:10558000518148175907C0F04817590761F48281C3
:105590009381209719F09B838A832BC090935707A0
:1055A0008093560726C02115310519F0421753077D
:1055B00018F49A01BE01DF01EF010280F381E02DB2
:1055C000DCCF2115310509F1281B390B24303105B9
:1055D00090F412968D919C9113976115710521F0AD
:1055E000FB019383828304C09093570780935607EF
:1055F000FD01329644C0FD01E20FF31F81939193A8
:10560000225031092D933C933AC020915407309198
:105610005507232B41F4209102023091030230936D
:105620005507209354072091000230910102211563
:10563000310541F42DB73EB7409104025091050267
:10564000241B350BE0915407F0915507E217F3073F
:10565000A0F42E1B3F0B2817390778F0AC014E5FE2
:105660005F4F2417350748F04E0F5F1F50935507C3
:10567000409354078193919302C0E0E0F0E0CF01A2
:10568000DF91CF9108950F931F93CF93DF930097EE
:1056900009F48CC0FC0132971382128200915607E4
:1056A000109157070115110581F420813181820F76
:1056B000931F20915407309155072817390779F522
:1056C000F0935507E093540771C0D80140E050E0D3
:1056D000AE17BF0750F412962D913C911397AD0170
:1056E0002115310509F1D901F3CF9D01DA01338389
:1056F000228360817181860F971F8217930769F457
:10570000EC0128813981260F371F2E5F3F4F3183EF
:1057100020838A819B8193838283452B29F4F09394
:105720005707E093560742C01396FC93EE931297E7
:10573000ED01499159919E01240F351FE217F3079E
:1057400071F480819181840F951F029611969C932C
:105750008E938281938113969C938E931297E0E0AF
:10576000F0E0D80112968D919C911397009719F053
:10577000F8018C01F6CF8D919C9198012E5F3F4FDF
:10578000820F931F2091540730915507281739072E
:1057900069F4309729F4109257071092560702C007
:1057A000138212821093550700935407DF91CF9113
:1057B0001F910F910895FB01DC0102C001900D9231
:1057C00041505040D8F70895DC0101C06D9341501D
:1057D0005040E0F70895FB01DC018D9101908019A4
:0C57E0000110D9F3990B0895F894FFCF45
:1057EC000000580780000100000002000E027A023F
:1057FC00000000000A00A2020100000002000400E8
:10580C00220209070000000004004007000000000D
:10581C0003004C070B0000000200500706000000BC
:10582C000100D302DA02E402E302EC02EB02F5021D
:10583C00F402FD0207031203180322032B030400D6
:10584C000400010001000200020004000400010039
:10585C00040002000200040008000AD7A33C000068
:10586C0048C2CDCC4C3D000048420000FA44000038
:10587C0048430000C84200000000CDCC4C3D000065
:10588C00000000007A44000048420100260626066B
:10589C00260626062606260626062606FF010153A0
:1058AC00696D756C6174696F6E2066696E69736879
:1058BC006564007265616C5F54007265616C3332B3
:1058CC005F540075696E74385F540075696E74317D
:1058DC00365F540075696E7433325F5400626F6FBB
:1058EC006C65616E5F540066636E5F63616C6C5FC8
:1058FC005400696E745F5400706F696E7465725FEA
:10590C005400616374696F6E5F540074696D6572E5
:10591C005F75696E7433325F706169725F54000138
:10592C00190700000000560A7B0DE609000AF2096F
:10593C00350A00000000310D2D77002D69676E6F60
:10594C0072652D61726700436F756C64206E6F74A5
:10595C00206372656174652065787465726E616C24
:10596C00206D6F6465207573657220646174612E9F
:10597C0020204F7574206F66206D656D6F72792EC7
:02598C000A000F
:00000001FF
